{
  "_format": "hh-sol-artifact-1",
  "contractName": "Polling",
  "sourceName": "contracts/Polling.sol",
  "abi": [
    {
      "inputs": [],
      "stateMutability": "nonpayable",
      "type": "constructor"
    },
    {
      "inputs": [],
      "name": "becomePoller",
      "outputs": [],
      "stateMutability": "nonpayable",
      "type": "function"
    },
    {
      "inputs": [
        {
          "internalType": "string",
          "name": "_idea",
          "type": "string"
        }
      ],
      "name": "createPoll",
      "outputs": [],
      "stateMutability": "nonpayable",
      "type": "function"
    },
    {
      "inputs": [],
      "name": "getPolls",
      "outputs": [
        {
          "components": [
            {
              "internalType": "address",
              "name": "creator",
              "type": "address"
            },
            {
              "internalType": "string",
              "name": "idea",
              "type": "string"
            },
            {
              "internalType": "uint256",
              "name": "votes",
              "type": "uint256"
            },
            {
              "internalType": "uint256",
              "name": "id",
              "type": "uint256"
            }
          ],
          "internalType": "struct Polling.Poll[]",
          "name": "",
          "type": "tuple[]"
        }
      ],
      "stateMutability": "view",
      "type": "function"
    },
    {
      "inputs": [],
      "name": "isAddressPoller",
      "outputs": [
        {
          "internalType": "bool",
          "name": "",
          "type": "bool"
        }
      ],
      "stateMutability": "view",
      "type": "function"
    },
    {
      "inputs": [],
      "name": "owner",
      "outputs": [
        {
          "internalType": "address",
          "name": "",
          "type": "address"
        }
      ],
      "stateMutability": "view",
      "type": "function"
    },
    {
      "inputs": [
        {
          "internalType": "address",
          "name": "",
          "type": "address"
        }
      ],
      "name": "pollers",
      "outputs": [
        {
          "internalType": "address",
          "name": "_address",
          "type": "address"
        }
      ],
      "stateMutability": "view",
      "type": "function"
    },
    {
      "inputs": [
        {
          "internalType": "uint256",
          "name": "",
          "type": "uint256"
        }
      ],
      "name": "polls",
      "outputs": [
        {
          "internalType": "address",
          "name": "creator",
          "type": "address"
        },
        {
          "internalType": "string",
          "name": "idea",
          "type": "string"
        },
        {
          "internalType": "uint256",
          "name": "votes",
          "type": "uint256"
        },
        {
          "internalType": "uint256",
          "name": "id",
          "type": "uint256"
        }
      ],
      "stateMutability": "view",
      "type": "function"
    },
    {
      "inputs": [
        {
          "internalType": "uint256",
          "name": "",
          "type": "uint256"
        }
      ],
      "name": "pollsArray",
      "outputs": [
        {
          "internalType": "address",
          "name": "creator",
          "type": "address"
        },
        {
          "internalType": "string",
          "name": "idea",
          "type": "string"
        },
        {
          "internalType": "uint256",
          "name": "votes",
          "type": "uint256"
        },
        {
          "internalType": "uint256",
          "name": "id",
          "type": "uint256"
        }
      ],
      "stateMutability": "view",
      "type": "function"
    },
    {
      "inputs": [
        {
          "internalType": "uint256",
          "name": "pollId",
          "type": "uint256"
        }
      ],
      "name": "votePoll",
      "outputs": [],
      "stateMutability": "nonpayable",
      "type": "function"
    },
    {
      "inputs": [
        {
          "internalType": "address",
          "name": "",
          "type": "address"
        }
      ],
      "name": "voters",
      "outputs": [
        {
          "internalType": "address",
          "name": "_address",
          "type": "address"
        },
        {
          "internalType": "uint256",
          "name": "timesVoted",
          "type": "uint256"
        }
      ],
      "stateMutability": "view",
      "type": "function"
    },
    {
      "inputs": [],
      "name": "winningPoll",
      "outputs": [
        {
          "internalType": "uint256",
          "name": "",
          "type": "uint256"
        }
      ],
      "stateMutability": "view",
      "type": "function"
    },
    {
      "inputs": [],
      "name": "withdrawVotes",
      "outputs": [],
      "stateMutability": "nonpayable",
      "type": "function"
    }
  ],
  "bytecode": "0x608060405234801561001057600080fd5b50336000806101000a81548173ffffffffffffffffffffffffffffffffffffffff021916908373ffffffffffffffffffffffffffffffffffffffff160217905550600060405180604001604052803373ffffffffffffffffffffffffffffffffffffffff168152602001600081525090508060026000836000015173ffffffffffffffffffffffffffffffffffffffff1673ffffffffffffffffffffffffffffffffffffffff16815260200190815260200160002060008201518160000160006101000a81548173ffffffffffffffffffffffffffffffffffffffff021916908373ffffffffffffffffffffffffffffffffffffffff160217905550602082015181600101559050505061187d806101296000396000f3fe608060405234801561001057600080fd5b50600436106100b45760003560e01c806368cced9d1161007157806368cced9d1461015857806374a9ced9146101885780638da5cb5b146101a4578063a3ec138d146101c2578063ac2f0074146101f3578063fe34480414610226576100b4565b8063026fff92146100b9578063120fe89b146100d757806340d5637f146100f55780634534b99e146100ff57806357278ef0146101325780635b6d72331461014e575b600080fd5b6100c1610244565b6040516100ce9190610f4f565b60405180910390f35b6100df61024a565b6040516100ec9190611178565b60405180910390f35b6100fd6103a5565b005b610119600480360381019061011491906111da565b610592565b6040516101299493929190611260565b60405180910390f35b61014c600480360381019061014791906111da565b61067a565b005b61015661084c565b005b610172600480360381019061016d91906112d8565b6109d7565b60405161017f9190611305565b60405180910390f35b6101a2600480360381019061019d9190611455565b610a15565b005b6101ac610c63565b6040516101b99190611305565b60405180910390f35b6101dc60048036038101906101d791906112d8565b610c87565b6040516101ea92919061149e565b60405180910390f35b61020d600480360381019061020891906111da565b610ccb565b60405161021d9493929190611260565b60405180910390f35b61022e610da3565b60405161023b91906114e2565b60405180910390f35b60015481565b60606004805480602002602001604051908101604052809291908181526020016000905b8282101561039c57838290600052602060002090600402016040518060800160405290816000820160009054906101000a900473ffffffffffffffffffffffffffffffffffffffff1673ffffffffffffffffffffffffffffffffffffffff1673ffffffffffffffffffffffffffffffffffffffff1681526020016001820180546102f79061152c565b80601f01602080910402602001604051908101604052809291908181526020018280546103239061152c565b80156103705780601f1061034557610100808354040283529160200191610370565b820191906000526020600020905b81548152906001019060200180831161035357829003601f168201915b50505050508152602001600282015481526020016003820154815250508152602001906001019061026e565b50505050905090565b3373ffffffffffffffffffffffffffffffffffffffff1660008054906101000a900473ffffffffffffffffffffffffffffffffffffffff1673ffffffffffffffffffffffffffffffffffffffff1614610433576040517f08c379a000000000000000000000000000000000000000000000000000000000815260040161042a906115aa565b60405180910390fd5b60005b60048054905081101561058f576000600560008381526020019081526020016000206040518060800160405290816000820160009054906101000a900473ffffffffffffffffffffffffffffffffffffffff1673ffffffffffffffffffffffffffffffffffffffff1673ffffffffffffffffffffffffffffffffffffffff1681526020016001820180546104c99061152c565b80601f01602080910402602001604051908101604052809291908181526020018280546104f59061152c565b80156105425780601f1061051757610100808354040283529160200191610542565b820191906000526020600020905b81548152906001019060200180831161052557829003601f168201915b505050505081526020016002820154815260200160038201548152505090506001548160400151111561057b5780606001516001819055505b508080610587906115f9565b915050610436565b50565b600481815481106105a257600080fd5b90600052602060002090600402016000915090508060000160009054906101000a900473ffffffffffffffffffffffffffffffffffffffff16908060010180546105eb9061152c565b80601f01602080910402602001604051908101604052809291908181526020018280546106179061152c565b80156106645780601f1061063957610100808354040283529160200191610664565b820191906000526020600020905b81548152906001019060200180831161064757829003601f168201915b5050505050908060020154908060030154905084565b60006005600083815260200190815260200160002090506000600483815481106106a7576106a6611642565b5b906000526020600020906004020190506000600260003373ffffffffffffffffffffffffffffffffffffffff1673ffffffffffffffffffffffffffffffffffffffff16815260200190815260200160002090508260000160009054906101000a900473ffffffffffffffffffffffffffffffffffffffff1673ffffffffffffffffffffffffffffffffffffffff168160000160009054906101000a900473ffffffffffffffffffffffffffffffffffffffff1673ffffffffffffffffffffffffffffffffffffffff1614156107b1576040517f08c379a00000000000000000000000000000000000000000000000000000000081526004016107a8906116bd565b60405180910390fd5b60008160010154146107f8576040517f08c379a00000000000000000000000000000000000000000000000000000000081526004016107ef90611729565b60405180910390fd5b82600201600081548092919061080d906115f9565b9190505550806001016000815480929190610827906115f9565b9190505550816002016000815480929190610841906115f9565b919050555050505050565b3373ffffffffffffffffffffffffffffffffffffffff16600360003373ffffffffffffffffffffffffffffffffffffffff1673ffffffffffffffffffffffffffffffffffffffff16815260200190815260200160002060000160009054906101000a900473ffffffffffffffffffffffffffffffffffffffff1673ffffffffffffffffffffffffffffffffffffffff16141561091d576040517f08c379a000000000000000000000000000000000000000000000000000000000815260040161091490611795565b60405180910390fd5b600060405180602001604052803373ffffffffffffffffffffffffffffffffffffffff1681525090508060036000836000015173ffffffffffffffffffffffffffffffffffffffff1673ffffffffffffffffffffffffffffffffffffffff16815260200190815260200160002060008201518160000160006101000a81548173ffffffffffffffffffffffffffffffffffffffff021916908373ffffffffffffffffffffffffffffffffffffffff16021790555090505050565b60036020528060005260406000206000915090508060000160009054906101000a900473ffffffffffffffffffffffffffffffffffffffff16905081565b3373ffffffffffffffffffffffffffffffffffffffff16600360003373ffffffffffffffffffffffffffffffffffffffff1673ffffffffffffffffffffffffffffffffffffffff16815260200190815260200160002060000160009054906101000a900473ffffffffffffffffffffffffffffffffffffffff1673ffffffffffffffffffffffffffffffffffffffff1614610ae5576040517f08c379a0000000000000000000000000000000000000000000000000000000008152600401610adc90611827565b60405180910390fd5b600060405180608001604052803373ffffffffffffffffffffffffffffffffffffffff168152602001838152602001600381526020016004805490508152509050600481908060018154018082558091505060019003906000526020600020906004020160009091909190915060008201518160000160006101000a81548173ffffffffffffffffffffffffffffffffffffffff021916908373ffffffffffffffffffffffffffffffffffffffff1602179055506020820151816001019080519060200190610bb5929190610e93565b506040820151816002015560608201518160030155505080600560008360600151815260200190815260200160002060008201518160000160006101000a81548173ffffffffffffffffffffffffffffffffffffffff021916908373ffffffffffffffffffffffffffffffffffffffff1602179055506020820151816001019080519060200190610c47929190610e93565b5060408201518160020155606082015181600301559050505050565b60008054906101000a900473ffffffffffffffffffffffffffffffffffffffff1681565b60026020528060005260406000206000915090508060000160009054906101000a900473ffffffffffffffffffffffffffffffffffffffff16908060010154905082565b60056020528060005260406000206000915090508060000160009054906101000a900473ffffffffffffffffffffffffffffffffffffffff1690806001018054610d149061152c565b80601f0160208091040260200160405190810160405280929190818152602001828054610d409061152c565b8015610d8d5780601f10610d6257610100808354040283529160200191610d8d565b820191906000526020600020905b815481529060010190602001808311610d7057829003601f168201915b5050505050908060020154908060030154905084565b600080600360003373ffffffffffffffffffffffffffffffffffffffff1673ffffffffffffffffffffffffffffffffffffffff1681526020019081526020016000206040518060200160405290816000820160009054906101000a900473ffffffffffffffffffffffffffffffffffffffff1673ffffffffffffffffffffffffffffffffffffffff1673ffffffffffffffffffffffffffffffffffffffff168152505090503373ffffffffffffffffffffffffffffffffffffffff16816000015173ffffffffffffffffffffffffffffffffffffffff161415610e8a576001915050610e90565b60009150505b90565b828054610e9f9061152c565b90600052602060002090601f016020900481019282610ec15760008555610f08565b82601f10610eda57805160ff1916838001178555610f08565b82800160010185558215610f08579182015b82811115610f07578251825591602001919060010190610eec565b5b509050610f159190610f19565b5090565b5b80821115610f32576000816000905550600101610f1a565b5090565b6000819050919050565b610f4981610f36565b82525050565b6000602082019050610f646000830184610f40565b92915050565b600081519050919050565b600082825260208201905092915050565b6000819050602082019050919050565b600073ffffffffffffffffffffffffffffffffffffffff82169050919050565b6000610fc182610f96565b9050919050565b610fd181610fb6565b82525050565b600081519050919050565b600082825260208201905092915050565b60005b83811015611011578082015181840152602081019050610ff6565b83811115611020576000848401525b50505050565b6000601f19601f8301169050919050565b600061104282610fd7565b61104c8185610fe2565b935061105c818560208601610ff3565b61106581611026565b840191505092915050565b61107981610f36565b82525050565b60006080830160008301516110976000860182610fc8565b50602083015184820360208601526110af8282611037565b91505060408301516110c46040860182611070565b5060608301516110d76060860182611070565b508091505092915050565b60006110ee838361107f565b905092915050565b6000602082019050919050565b600061110e82610f6a565b6111188185610f75565b93508360208202850161112a85610f86565b8060005b85811015611166578484038952815161114785826110e2565b9450611152836110f6565b925060208a0199505060018101905061112e565b50829750879550505050505092915050565b600060208201905081810360008301526111928184611103565b905092915050565b6000604051905090565b600080fd5b600080fd5b6111b781610f36565b81146111c257600080fd5b50565b6000813590506111d4816111ae565b92915050565b6000602082840312156111f0576111ef6111a4565b5b60006111fe848285016111c5565b91505092915050565b61121081610fb6565b82525050565b600082825260208201905092915050565b600061123282610fd7565b61123c8185611216565b935061124c818560208601610ff3565b61125581611026565b840191505092915050565b60006080820190506112756000830187611207565b81810360208301526112878186611227565b90506112966040830185610f40565b6112a36060830184610f40565b95945050505050565b6112b581610fb6565b81146112c057600080fd5b50565b6000813590506112d2816112ac565b92915050565b6000602082840312156112ee576112ed6111a4565b5b60006112fc848285016112c3565b91505092915050565b600060208201905061131a6000830184611207565b92915050565b600080fd5b600080fd5b7f4e487b7100000000000000000000000000000000000000000000000000000000600052604160045260246000fd5b61136282611026565b810181811067ffffffffffffffff821117156113815761138061132a565b5b80604052505050565b600061139461119a565b90506113a08282611359565b919050565b600067ffffffffffffffff8211156113c0576113bf61132a565b5b6113c982611026565b9050602081019050919050565b82818337600083830152505050565b60006113f86113f3846113a5565b61138a565b90508281526020810184848401111561141457611413611325565b5b61141f8482856113d6565b509392505050565b600082601f83011261143c5761143b611320565b5b813561144c8482602086016113e5565b91505092915050565b60006020828403121561146b5761146a6111a4565b5b600082013567ffffffffffffffff811115611489576114886111a9565b5b61149584828501611427565b91505092915050565b60006040820190506114b36000830185611207565b6114c06020830184610f40565b9392505050565b60008115159050919050565b6114dc816114c7565b82525050565b60006020820190506114f760008301846114d3565b92915050565b7f4e487b7100000000000000000000000000000000000000000000000000000000600052602260045260246000fd5b6000600282049050600182168061154457607f821691505b60208210811415611558576115576114fd565b5b50919050565b7f596f75206172656e7420616c6c6f77656420746f207769746864726177000000600082015250565b6000611594601d83611216565b915061159f8261155e565b602082019050919050565b600060208201905081810360008301526115c381611587565b9050919050565b7f4e487b7100000000000000000000000000000000000000000000000000000000600052601160045260246000fd5b600061160482610f36565b91507fffffffffffffffffffffffffffffffffffffffffffffffffffffffffffffffff821415611637576116366115ca565b5b600182019050919050565b7f4e487b7100000000000000000000000000000000000000000000000000000000600052603260045260246000fd5b7f596f752063616e6e6f7420766f746520796f7572206f776e20706f6c6c210000600082015250565b60006116a7601e83611216565b91506116b282611671565b602082019050919050565b600060208201905081810360008301526116d68161169a565b9050919050565b7f596f75206861766520616c726561647920766f74656400000000000000000000600082015250565b6000611713601683611216565b915061171e826116dd565b602082019050919050565b6000602082019050818103600083015261174281611706565b9050919050565b7f596f752061726520616c7265616479206120706f6c6c65720000000000000000600082015250565b600061177f601883611216565b915061178a82611749565b602082019050919050565b600060208201905081810360008301526117ae81611772565b9050919050565b7f596f752063616e6e6f7420637265617465206120706f6c6c20696620796f752060008201527f6172656e74206120706f6c6c6572000000000000000000000000000000000000602082015250565b6000611811602e83611216565b915061181c826117b5565b604082019050919050565b6000602082019050818103600083015261184081611804565b905091905056fea26469706673582212201084f0eae18863aa67f8e49d46666db5899afe5baf885d1a8be407a03cb6037e64736f6c63430008080033",
  "linkReferences": {},
  "deployedLinkReferences": {}
}